:020000040800F2
:10000000D008002001010008012300084115000864
:10001000FD220008490A0008F52C00080000000035
:10002000000000000000000000000000752600082D
:10003000350B0008000000007D250008A1280008FD
:100040001B0100081B0100081B0100081B01000820
:100050001B0100081B0100081B0100081B01000810
:100060001B0100081B0100081B0100081B01000800
:100070001B0100081B0100081B0100081B010008F0
:100080001B0100081B0100081B0100081B010008E0
:100090001B0100081B0100081B0100081B010008D0
:1000A0001B0100081B0100081B0100081B010008C0
:1000B000192900081B010008312900081B0100084C
:1000C0001B0100081B0100081B0100081B010008A0
:1000D0001B01000871290008F9290008392A0008C5
:1000E0001B0100081B0100081B010008DFF80CD0F1
:1000F00000F04CFC004800478D430008D008002069
:100100000648804706480047FEE7FEE7FEE7FEE7B1
:10011000FEE7FEE7FEE7FEE7FEE7FEE7B928000898
:10012000ED000008F0B480EA0102D40F4200B2EB07
:10013000410F02D20246084611464A0042D0C30D82
:10014000DDB2C1F3C752AD1A202D35DAC1F3160165
:1001500041F4000204B15242C5F1200602FA06F150
:100160002A411044B3EBD05F23D0C4B1012DA0EBE2
:10017000C35009DCF0BC4FF0004202EAC352DBB2CC
:1001800000F5000000F038BA400000F1807000EB8C
:10019000C350A0F1807040EAD170490009E04908DD
:1001A00041EAC071A0EBC35000F50000400800EB2D
:1001B000C350F0BC00F017BA6142012202EB4101CA
:1001C000001BF6E7F0BC704781F00041AAE780F021
:1001D0000040A7E780EA010210B502F000434000AA
:1001E00022D04A001FD0010E01EB1261C0F356006D
:1001F000C2F3560240F4000042F40002A0FB0220C9
:1002000000047F39140400D0401C50EA124001D48D
:100210004000491EC2B20C0604EBD010401C40083E
:10022000802A02D003E0002010BD20F00100002948
:1002300000DA0020184310BD30B480EA010202F059
:10024000004530F0004221F0004013D090B1C30DC2
:10025000D40DC2F31601C0F31600E41A41F40001F4
:1002600040F400027D34914201D3641C00E0490057
:10027000002C02DA30BC002070474FF4000000234D
:10028000914201D3891A034340084FEA4101F7D153
:1002900051B1914202D14FF0004105E002D24FF03E
:1002A000010101E06FF0010103EBC450284430BCB0
:1002B00000F099B92DE9FE4F81EA030404F00044EF
:1002C00021F0004100944FF0000B23F0004350EA6E
:1002D00001045ED052EA03045BD0C3F30A54C1F3B5
:1002E0000A552C44A4F2F3340194A0FB0254C1F348
:1002F000130141F48011C3F3130343F4801301FB92
:10030000024400FB034E840A970A44EA815447EAF8
:100310008357A4FB076802958D0A05FB07854FEA02
:10032000932C04FB0C542705029D4FEA065847EA1C
:100330001637B5EB08056EEB070C870E920E47EAF1
:10034000811742EA8312A7FB0201B6EB0B0164EBB3
:1003500000042B0D43EA0C335E1844EB1C50DA46C4
:100360005146E7FB0201C5F313044FEA0B3343EA9E
:1003700014534FEA0432019C43EA0603A4F10C042F
:100380000294009CCDE900B400F073F903B0BDE81D
:10039000F08F00200146F9E72DE9F04D81EA0304D2
:1003A00004F0004B21F0004514464FF0000A23F002
:1003B000004150EA050220D054EA01021DD0C5F3E5
:1003C0000A570246C5F31303C1F31300C1F30A56DB
:1003D00040F4801543F48013A7EB0608101BD646A3
:1003E00008F2FD3873EB050002D308F1010801E0C3
:1003F00092185B41B8F1000F03DA00200146BDE816
:10040000F08D00204FF48011064684460EE0171B45
:1004100073EB050705D3121B63EB050306434CEA98
:10042000010C49084FEA300092185B4150EA01077D
:10043000EDD152EA030012D082EA040083EA0501FA
:10044000084305D0101BAB4106D20122002306E071
:1004500000224FF0004302E06FF0010253101AEB4C
:1004600006004CEB085110EB0A0041EB0B01BDE814
:10047000F04D00F0EFB8C10F80EAE0700844CA0701
:100480009623002100F0B8B896230022114600F010
:10049000B3B800F0004220F00040C10DC0F31600D8
:1004A00040F400007F2901DA00207047962903DC20
:1004B000C1F19601C84001E096398840002AF4D085
:1004C0004042704700F0004230F000400AD0C10DB9
:1004D00001F56071C0F3160042EA0151C2084007FD
:1004E0001143704700200146704701F0004330B4CB
:1004F00021F0004150EA010206D00A0DA2F5607217
:10050000C1F31301002A02DC30BC00207047440F05
:1005100044EAC104C100E01830BC00EBC25000F056
:1005200062B80000002801DBC0F10040002901DBB7
:10053000C1F100418142704730B50B4601460020B1
:100540002022012409E021FA02F59D4205D303FA95
:1005500002F5491B04FA02F52844151EA2F1010216
:10056000F1DC30BD2DE9F05F0546002092469B4648
:1005700088460646814640241BE0284641464746B9
:10058000224600F020F853465A46C01A914110D333
:1005900011461846224600F00BFA2D1A67EB0108A7
:1005A0004F4622460120002100F002FA17EB000915
:1005B0004E41201EA4F10104DFDC484631462A46A4
:1005C0004346BDE8F09F202A04DB203A21FA02F0DE
:1005D0000021704721FA02F3D040C2F1200291407D
:1005E0000843194670470029A8BF7047401C4900BE
:1005F00008BF20F00100704710B4B0FA80FC00FA88
:100600000CF050EA010404BF10BC704749B1CCF1B2
:10061000200421FA04F411FA0CF118BF012121433E
:100620000843A3EB0C01CB1D4FEA00614FEA1020F9
:1006300042BF002010BC704700EBC350104400299B
:10064000A4BF10BC7047401C490008BF20F0010047
:1006500010BC704710B5141E73F1000408DA401C7A
:1006600041F1000192185B411A4301D120F00100D1
:1006700010BD2DE9F04D92469B4611B1B1FA81F2C1
:1006800002E0B0FA80F22032904600F091F9044680
:100690000F4640EA0A0041EA0B0153465A46084316
:1006A00013D0114653EA010019D0C8F14002504658
:1006B000FFF789FF05460E4650465946424600F070
:1006C00077F9084305D0012004E020463946BDE80B
:1006D000F08D0020054346EAE0762C4337430A9824
:1006E0006305E40AA0EB08000022FD0A44EA47542F
:1006F0000A3002D500200146E9E7010510196941D9
:10070000DDE9084500196941BDE8F04DA2E72DE992
:10071000FE4F804681EA0300C00F0C46009021F096
:10072000004123F00045B8EB0200A94105D2404644
:10073000214690461C460B46024623F000401043DB
:1007400047D0270DC7F30A00C3F30A510290401A9D
:10075000019040286BDAC3F3130040F4801B00982B
:10076000924620B10023D2EB030A63EB0B0B0198F6
:100770005946C0F14002504600F01AF906460D46AF
:1007800050465946019A00F022F910EB08006141E9
:10079000002487EA115284EAE7731A4340D0009A92
:1007A00062B3019A012A4FEA075215DC001B61EB84
:1007B00002014FF0004202EA0752CDE90042001C5C
:1007C00041F5801132462B46FFF753FF03B0BDE8D9
:1007D000F08F40462146F9E7001B61EB0201001C47
:1007E00041F5801300185B412018A2F5001747EB74
:1007F000030140EAD570B6196D4111E06D084FEA6A
:10080000360645EAC0754FEA0752001B61EB02014C
:10081000001C41F5801149084FEA30000019514190
:1008200032462B4603B0BDE8F04FFFF713BF0098E8
:10083000012240000023D0EB020263EBE07300983A
:1008400021464FEAE074B8EB000061EB0401E9E7F0
:1008500083F000435BE781F0004158E770B521F079
:10086000004303430CD0C1F30A550024D5EB040523
:1008700064EB0403D617AD1AB34102DB0020014636
:1008800070BD201841EB025170BD2DE9F04D0023E1
:100890001A461B1A8A4103DB00200146BDE8F08D91
:1008A000C1F30A52C1F3130141F480154FF0000B5C
:1008B000D10702D100186D41521E0027044640F2B4
:1008C000FF11384601EB620A3E4680460246002090
:1008D0004FF48011FFF777FEC2197141BB1846EB48
:1008E0000100B4EB030C75EB000C04D3E41A65EBC8
:1008F000000517460E46241908F101006D41804697
:100900003428E3DDF91946EB0600091BA84103D2A0
:100910004FF0FF32134601E0002213461BEB0700A5
:1009200046EB0A51BDE8F04DFFF794BEC1F30A5201
:10093000C1F3130140F2FF3341F480119A4202DA0D
:1009400000200146704740F233439A42A2F23342FC
:1009500002DC5242FFF737BE00F02AB830B5041E61
:1009600071F1000404DB4FF00044404264EB0101EC
:10097000141E73F1000405DB1C464FF00043524285
:1009800063EB0403994208BF904230BD064C074D0B
:1009900006E0E06840F0010394E80700984710344F
:1009A000AC42F6D3FFF7A6FB68460008884600086D
:1009B000202A04DB203A00FA02F10020704791401F
:1009C000C2F1200320FA03F3194390407047202A14
:1009D00006DBCB17203A41FA02F043EAE07306E067
:1009E00041FA02F3D040C2F1200291400843194677
:1009F000704770B58C1810F8015B15F0070301D132
:100A000010F8013B2A1106D110F8012B03E010F871
:100A1000016B01F8016B5B1EF9D12B0705D4002394
:100A2000521E0DD401F8013BFAE710F8013BCB1A36
:100A3000921C03E013F8015B01F8015B521EF9D52B
:100A4000A142D8D3002070BD00BFFEE72DE9FF41D1
:100A50001E46BDF800006421484300B20090BDF876
:100A60000400484300B20190BDF80800484300B2BA
:100A700002900024AA222146641C2D484254FF22E1
:100A80002146641C425403222146641C4254002225
:100A90002146641C42549DF800202146641C4254A7
:100AA0009DF801202146641C42549DF804202146F3
:100AB000641C42549DF805202046611CCCB21C49A0
:100AC0000A549DF808202046611CCCB218490A54EB
:100AD0009DF809202046611CCCB215490A542046D5
:100AE000611CCCB212490E54201FC870002500278B
:100AF000002007E00E49095C2944CDB27919CFB234
:100B0000411CC8B20A49C978091D8142F2DC20465D
:100B1000611CCCB206490D542046611CCCB204497C
:100B20000F542146024802F0BFF8BDE8FF810000E3
:100B300054010020704710B5044603E04FF47A706A
:100B400000F005F8201EA4F10104F7D110BD30B566
:100B5000044600F093F8054600BF00F08FF8401BF4
:100B6000A042FAD330BD2DE9F0410246002500260F
:100B7000002000230024002791F803C00CF00F058B
:100B800091F803C00CF0100CBCF1000F03D091F8E9
:100B900002C04CEA050591F800C0BCF1000F31D04D
:100BA000146800202BE04FF0010C0CFA00F3B1F8B0
:100BB00000C00CEA03069E4220D183004FF00F0CC8
:100BC0000CFA03F7BC4305FA03FC4CEA040491F861
:100BD00003C0BCF1280F06D14FF0010C0CFA00FC49
:100BE000C2F814C00AE091F803C0BCF1480F05D167
:100BF0004FF0010C0CFA00FCC2F810C0401C082891
:100C0000D1D31460B1F800C0BCF1FF0F34DD5468DB
:100C100000202EE000F1080C4FF0010808FA0CF358
:100C2000B1F800C00CEA03069E4221D183004FF0C8
:100C30000F0C0CFA03F7BC4305FA03FC4CEA04045E
:100C400091F803C0BCF1280F05D100F1080C08FA97
:100C50000CF8C2F8148091F803C0BCF1480F07D11A
:100C600000F1080C4FF0010808FA0CF8C2F81080E7
:100C7000401C0828CED35460BDE8F08100BF0E4A66
:100C800011684FF0E02252694FF0E0239B69D21ABD
:100C90004FF47A735A434FF0E0235B69B2FBF3F2EF
:100CA00001EB4103C3EBC11302EBC300024A12681C
:100CB0009142E4D1704700003400002000B593B0A9
:100CC0000020119010903A21682000F087FD00F07C
:100CD000010000287ED0FE4803F05EFBFC48B0F91E
:100CE00000000D90FFF7C7FB0E90FA4801680E98C0
:100CF000FFF770FA0F90F848006801460E900F98C1
:100D0000FFF762FAF5490860F148B0F902000D906A
:100D1000FFF7B1FB0E90EF4801680E98FFF75AFA03
:100D20000F90ED48406801460E900F98FFF74CFA7F
:100D3000EB490860E648B0F904000D90FFF79BFB13
:100D40000E90E44801680E98FFF744FA0F90E248CD
:100D5000806801460E900F98FFF736FAE149086067
:100D6000E14803F03AFBE048B0F900000D90FFF7CE
:100D700082FB0E90DD4801680E98FFF72BFA0F906A
:100D8000DB48006801460E900F98FFF71DFAD9491D
:100D90000860D548B0F902000D90FFF76CFB0E908B
:100DA000D24801680E98FFF715FA0F90D0484068B6
:100DB00001460E900F98FFF707FACF490860CA481E
:100DC000B0F904000D90FFF756FB0E90C74801687C
:100DD0000E9800E068E0FFF7FDF90F90C4488068C6
:100DE00001460E900F98FFF7EFF9C4490860C44818
:100DF00003F014FBC248B0F900000C90FFF73BFB76
:100E00000D90C04801680D98FFF7E4F90E90BE48B8
:100E1000006801460D900E98FFF7DCF90F90BB4873
:100E2000006801460E900F98FFF7CEF9B8490860A8
:100E3000B348B0F902000C90FFF71DFB0D90B148CC
:100E400001680D98FFF7C6F90E90AF48406801465B
:100E50000D900E98FFF7BEF90F90AC484068014620
:100E60000E900F98FFF7B0F9AA490860A448B0F9AE
:100E700004000C90FFF7FFFA0D90A24801680D984E
:100E8000FFF7A8F90E90A048806801460D900E98D3
:100E9000FFF7A0F90F909D48806801460E900F98CB
:100EA000FFF792F99C490860FFF7E8FE9B4908604C
:100EB000084600689A490968401A0E90FFF7DBFA65
:100EC00098490F90FFF7B8F9974908609348006870
:100ED00093490860944801681198FFF723F911902D
:100EE0001098401C109085480068FFF7EBFA8F4A75
:100EF0008F4BCDE90601FFF7DDF900228D4BCDE9DF
:100F00000801FFF749FACDE90A01FFF7EEFA0F9061
:100F100079480068FFF7D6FA844A854BCDE9060187
:100F2000FFF7C8F90022834BCDE90801FFF734FA37
:100F3000CDE90A01FFF7D9FA0E906E480068FFF775
:100F4000C1FA7A4A7A4BCDE90601FFF7B3F90022DC
:100F5000784BCDE90801FFF71FFACDE90A01FFF749
:100F6000C4FA0D906C4801686948026869480368D2
:100F70000F98CDE90232049101900E9800905948E3
:100F80000D9B0268564801685448006800F008FE4E
:100F9000FFF774FE4FF47A71B0FBF1F06649086018
:100FA00008460068B0F5FA7F7EDD4C48016863486A
:100FB000FFF710F90D90FFF785FA02460B46CDE9D1
:100FC0000E015FA001F098FE454801685B48FFF7FD
:100FD00001F90D90FFF776FA02460B46CDE90E01B6
:100FE00059A001F089FE3F4801685448FFF7F2F824
:100FF0000D90FFF767FA02460B46CDE90E0155A0AA
:1010000001F07AFE3B480068FFF75CFA02460B46A7
:10101000CDE90E0153A001F06FFE37480068FFF7DD
:1010200051FA02460B46CDE90E0150A001F064FED4
:1010300032480068FFF746FA02460B46CDE90E013A
:101040004DA001F059FE32480068FFF73BFA024616
:101050000B46CDE90E0143A001F04EFE2D4800687D
:10106000FFF730FA02460B46CDE90E013FA001F032
:1010700043FE29480068FFF725FA02460B46CDE9F2
:101080000E0142A001F038FE444800680D90FFF7C1
:1010900019FA02460B46CDE90E0141A001F02CFEE3
:1010A0003E4840680D9000E012E2FFF70BFA02465E
:1010B0000B46CDE90E013DA001F01EFE37488068C9
:1010C0000D90FFF7FFF902460B46CDE90E0173E0E4
:1010D000680000205C0000209C0400207C000020B0
:1010E00080000020840000206E00002060000020AE
:1010F00090040020880000208C0000209000002038
:101100007400002064000020780400208404002083
:1011100094000020980000209C000020D8000020AF
:10112000D000002000247449CC000020F1D4C85322
:10113000FB21094000806640A800002000007A449E
:101140006178203D20256600206179203D202566BC
:101150000000000020617A203D20256620206D6778
:101160000A0D00006778203D202566002067792061
:101170003D2025660000000020677A203D2025667E
:1011800020206465672F730A0D00000020677A2015
:101190003D20256620206D470A0D0000DC00002060
:1011A0007130203D2025660A0D0000007131203D80
:1011B0002025660A0D000000C6A001F09DFDC8486C
:1011C000C0680D90FFF77EF902460B46CDE90E018F
:1011D000C4A001F091FDC248C0680690C048C06834
:1011E00005900699FEF7F6FF0890BD4880680490C8
:1011F000BB48806803900499FEF7ECFF0690B8485E
:1012000040680290B648406801900299FEF7E2FFFC
:101210000490B34800680290B148006801900299B8
:10122000FEF7D8FF03900499FEF77CFF059006991E
:10123000FEF7CAFF07900899FEF7C6FF0990FFF76F
:1012400041F9CDE90C01A648C0680590A4480068A2
:1012500004900599FEF7BEFF0790A14880680590AD
:101260009F48406804900599FEF7B4FF06900799DF
:10127000FEF758FF4FF080410890FEF7ABFF099052
:10128000FFF720F9CDE90A01DDE90C2302F068FC43
:10129000CDE90E01FFF729F995490860904880686B
:1012A00007908F48006806900799FEF793FF099012
:1012B0008B48C06807908A48406806900799FEF7F7
:1012C00089FF08900999FEF77FFF4FF080410A904F
:1012D000FEF780FF0B90FFF7F5F8CDE90C0102F067
:1012E000F7F981F00041CDE90E01FFF7FEF88149E1
:1012F00008607B48C06806907948C06805900699E8
:10130000FEF768FF0890764880680490744880680B
:1013100003900499FEF75EFF0690714840680290C2
:101320006F48406801900299FEF754FF04906C48A2
:10133000006802906A48006801900299FEF74AFF2F
:1013400003900499FEF740FF05900699FEF73CFFD5
:1013500007900899FEF7E6FE0990FFF7B3F8CDE98C
:101360000C015F48C06805905D488068049005994D
:10137000FEF730FF07905A484068059058480068CB
:1013800004900599FEF726FF06900799FEF7CAFE1E
:101390004FF080410890FEF71DFF0990FFF792F88B
:1013A000CDE90A01DDE90C2302F0DAFBCDE90E01FB
:1013B000FFF79BF8504908604E480068FFF782F835
:1013C0004E4A4F4BCDE90C01FEF774FFCDE90E01FB
:1013D000FFF78BF84749086045480068FFF772F847
:1013E000464A474BCDE90C01FEF764FFCDE90E01FB
:1013F000FFF77BF83E49086042493D480068FEF728
:10140000E3FE3B4908603C480068FFF75BF83B4A55
:101410003B4BCDE90C01FEF74DFFCDE90E01FFF787
:1014200064F83549086008460068FFF74BF8CDE9D5
:101430000E0130480068FFF745F8CDE90C012C4853
:101440000068FFF73FF8CDE90A01DDE90E01CDE9BB
:101450000201DDE90C01CDE900012BA0DDE90A2341
:1014600001F04AFC1098FFF70FF80C901199FEF765
:10147000E3FE0D90FFF726F802460B46CDE90E017C
:1014800029A001F039FCFFF7F9FB4FF47A71B0FBAA
:10149000F1F02A490860002011901090144800686B
:1014A000FEF7F7FF00B20F901248006880F000408E
:1014B0000C90FEF7EEFF00B20E900F480068FEF7AA
:1014C000E8FF00B201230D90DDE90E12FFF7BEFA2E
:1014D00013B000BD7132203D2025660A0D000000CA
:1014E000DC0000207133203D2025660A0D0000003D
:1014F000C4000020C0000020C8000020775AF01A65
:10150000DCA54C40CDCC5C415961772C20506974EE
:1015100063682C20526F6C6C3A202566202566206B
:1015200025660A0D0000000061766572616765201E
:1015300072617465203D2025660A0D00AC00002014
:1015400000BFFEE770477047704710B5FFF7B6FB66
:1015500010BD704770477047704700002DE9F0419B
:1015600000F088F97521682000F038F90446712CE4
:1015700048D14749474802F0B3FB46490868FEF79F
:10158000A1FF05462A460B4643A001F0B5FB4149A1
:101590004868FEF797FF05462A460B4643A001F030
:1015A000ABFB3C498868FEF78DFF05462A460B4693
:1015B00043A001F0A1FB36490868FEF783FF05460A
:1015C0002A460B4643A001F097FB31494868FEF7D5
:1015D00079FF05462A460B4643A001F08DFB2C49B6
:1015E0008868FEF76FFF05462A460B4643A001F0C8
:1015F00083FB02F05DFE464802F0F4FD6420FFF735
:101600009AFA08E043A001F077FB21464AA001F0D6
:1016100073FB00BFFEE702F081FD02F0A3FD02F0C4
:10162000C9FD474801684FF07E50FEF705FE0746AA
:10163000FEF748FF05462A460B4642A001F05CFB38
:101640004B4801684FF07E50FEF7F6FD0746FEF767
:1016500039FF05462A460B4646A001F04DFB50488F
:1016600001684FF07E50FEF7E7FD0746FEF72AFFC0
:1016700005462A460B464BA001F03EFB5348544911
:1016800008605448486054488860BDE8F081000014
:101690009C0400209004002078206779726F2062FB
:1016A000696173203D2025660A0D00007920677965
:1016B000726F2062696173203D2025660A0D00006B
:1016C0007A206779726F2062696173203D202566F8
:1016D0000A0D00007820616363656C2062696173A4
:1016E000203D2025660A0D007920616363656C202A
:1016F00062696173203D2025660A0D007A206163CE
:1017000063656C2062696173203D2025660A0D00C7
:1017100078040020436F756C64206E6F7420636FD3
:101720006E6E65637420746F204D505539323530BC
:101730003A200A0D00000000252378200A0000004E
:101740005C000020416363656C65726F6D65746554
:10175000722073656E736974697669747920697330
:10176000202566204C53422F67200A0D0000000000
:10177000600000204779726F73636F706520736536
:101780006E7369746976697479206973202566209F
:101790004C53422F6465672F73200A0D0000000030
:1017A000640000204D61676E65746F6D65746572CD
:1017B0002073656E73697469766974792069732022
:1017C0002566204C53422F47200A0D000000EB43B2
:1017D000840400200000F0420000FA4270B5054683
:1017E0000E46002400F0ECF86906080E00F0B6F88A
:1017F000641C00F03DF9304600F0B0F8641C00F0C5
:1018000037F900F0DDF8012101EB4501C8B200F025
:10181000A5F8641C00F02CF9002000F067F80446DD
:1018200000F002F9204670BD10B500200E49086096
:101830000E48006820F470200C49086008460068D3
:1018400040F44030086000200949C1F890010120AF
:10185000FFF77DF9012004490860FFF778F90020BF
:101860000349C1F8940110BD9401214200080140D0
:10187000000021420848806940F004000649886160
:101880000648006820F47F000449086008460068A4
:1018900040F44C10086070470010024000080140FE
:1018A00010B500200E4908600E48006820F4702032
:1018B0000C4908600846006840F440300860012088
:1018C0000949C1F89001FFF742F901200449086075
:1018D000FFF73DF900200449C1F8940110BD000054
:1018E00094012142000801400000214270B50546E4
:1018F00000241748006820F4702015490860084645
:10190000006840F400200860002616E0002011491D
:1019100008600220FFF71BF901200F49C1F894016C
:101920006006040E0B488438006808B1601CC4B21D
:101930000220FFF70CF9701CC6B2082EE6DB15B1C9
:10194000FFF772FF01E0FFF7ABFF204670BD00001C
:1019500000080140940121420000214270B5044674
:101960001448006820F47020124908600846006896
:1019700040F44030086000200F490860002516E060
:10198000E0090D49091F08606006040E0120FFF7F9
:10199000DEF801200949C1F89401FFF7D8F80020CA
:1019A000054908600120FFF7D2F8681CC5B2082D70
:1019B000E6DB70BD00080140940121420000214295
:1019C00010B51648006820F47020144908600846D5
:1019D000006840F440300860012011490860114857
:1019E000D0F8100108B9002010BD01200C49091DD4
:1019F0000860FFF7ACF800200A49C1F890010848D8
:101A00008038006808B10020EEE70120FFF79FF85A
:101A100000200349091D08600120E5E70008014096
:101A2000900121420000214210B50E48006820F4C8
:101A300070200C4908600846006840F44030086097
:101A40000020094908600949C1F890010120FFF709
:101A50007EF80120044908600449C1F89001FFF7AD
:101A600076F810BD00080140940121420000214297
:101A700010B500241548006820F470201349086050
:101A80000846006840F40020086001201049086002
:101A9000FFF75DF801200F49C1F89401FFF757F8EF
:101AA0000AE0601CC4B2322C03DDFFF7BDFF00204A
:101AB00010BD0120FFF74BF805488038006800286A
:101AC000EFD10349091D08600120F1E7000801403A
:101AD00090012142000021422DE9F041054688464F
:101AE00016461F460024FFF76BFF6906080EFFF736
:101AF00035FFFFF7BDFF4046FFF730FFFFF7B8FFA8
:101B0000FFF75EFF012101EB4501C8B2FFF726FF99
:101B1000FFF7AEFF00BF0DE0701EA04204D0012011
:101B2000FFF7E4FE385503E00020FFF7DFFE3855ED
:101B3000601CC4B2B442EFDBFFF776FF2046BDE87D
:101B4000F08137B504460D4602AB012229462046F6
:101B500000F001F83EBD2DE9F04105460E4617465E
:101B600098460024FFF72CFF6906080EFFF7F6FEE3
:101B7000FFF77EFF3046FFF7F1FEFFF779FF00BF6A
:101B800007E018F80400FFF7E9FEFFF771FF601C9B
:101B9000C4B2BC42F5DBFFF747FF0120BDE8F0818E
:101BA0000FB5ABB0FE4800682A90FD484068299008
:101BB000FB4880682890FA48C06827902A99084610
:101BC000FEF708FB1590DDE92910FEF703FB1490E2
:101BD00028992A98FEF7FEFA139027992A98FEF77B
:101BE000F9FA129029990846FEF7F4FA1190DDE906
:101BF0002810FEF7EFFA109027992998FEF7EAFAD5
:101C00000F9028990846FEF7E5FA0E90DDE92710B7
:101C1000FEF7E0FA0D9027990846FEF7DBFA0C90E4
:101C20002D990846FEF7D6FA06902C990846FEF73D
:101C3000D1FA04902B990846FEF7CCFA0390049948
:101C4000FEF770FA05900699FEF76CFA0790FEF71A
:101C500039FCCDE9080102F00FFCCDE90A01FEF7DD
:101C600044FC269000212698FEF75CFC01D12FB0A1
:101C700000BD4FF07E502699FEF7DEFA2690269999
:101C80002B98FEF7A7FA2B9026992C98FEF7A2FA2C
:101C90002C9026992D98FEF79DFA2D9034990846A0
:101CA000FEF798FA069033990846FEF793FA0490E7
:101CB00032990846FEF78EFA03900499FEF732FA3D
:101CC00005900699FEF72EFA0790FEF7FBFBCDE98B
:101CD000080102F0D1FBCDE90A01FEF706FC2690CF
:101CE00000212698FEF71EFC00D1C0E74FF07E5081
:101CF0002699FEF7A1FA269026993298FEF76AFAFD
:101D0000329026993398FEF765FA339026993498E5
:101D1000FEF760FA349013990F98FEF703FA0990D2
:101D20004FF080403499FEF755FA08900999FEF774
:101D300051FA0B9012991098FEF746FA07904FF05F
:101D400080403399FEF746FA06900799FEF742FA6B
:101D500009904FF07C500E99FEF736FA05900C99D9
:101D6000FEF732FA07904FF080403299FEF732FAD0
:101D700006900799FEF72EFA08900999FEF7D2F916
:101D80000A900B99FEF7CEF9259014990D98FEF75D
:101D90001BFA09904FF080403499FEF71BFA089027
:101DA0000999FEF717FA0B904FF07C501199FEF746
:101DB0000BFA05900C99FEF707FA07904FF0804058
:101DC0003399FEF707FA06900799FEF703FA099090
:101DD00012991098FEF7A6F907904FF080403299BB
:101DE000FEF7F8F906900799FEF7F4F908900999BB
:101DF000FEF798F90A900B99FEF794F9249024992C
:101E00000846FEF7E7F9069025990846FEF7E2F93D
:101E100005900699FEF786F90790FEF753FBCDE98A
:101E2000080102F029FBCDE90A01FEF75EFB2390D1
:101E30004FF07C501199FEF7C7F907900E99FEF705
:101E4000C3F909904FF080403499FEF7C3F9089028
:101E50000999FEF7BFF90B9014990D98FEF762F9F6
:101E600007904FF080403399FEF7B4F90690079938
:101E7000FEF7B0F9099013990F98FEF7A5F90790AE
:101E80004FF080403299FEF7A5F906900799FEF7CA
:101E9000A1F908900999FEF745F90A900B99FEF708
:101EA00041F9229013990F98FEF78EF94FF0804177
:101EB0000B90FEF78FF921900D991498FEF732F9E7
:101EC0004FF080410B90FEF785F9209011991598FD
:101ED000FEF77AF90A900E99FEF776F90B900C99B5
:101EE000FEF720F91F9013990F98FEF76DF90990EE
:101EF0004FF080402299FEF76DF908900999FEF79E
:101F000069F90B904FF07C500E99FEF75DF9079040
:101F10000C99FEF759F909904FF080402399FEF78C
:101F200059F908900999FEF755F90A900B99FEF7AF
:101F3000F9F81E900D991498FEF7F4F809904FF0F7
:101F400080402299FEF746F908900999FEF742F978
:101F50000B9012991098FEF737F909904FF08040D6
:101F60002399FEF737F908900999FEF733F90A909B
:101F70000B99FEF7D7F81D904FF07C501199FEF7A2
:101F800023F907900E99FEF71FF909904FF0804052
:101F90002299FEF71FF908900999FEF71BF901E055
:101FA000DC0000200B900F991398FEF7BBF8099006
:101FB0004FF080402399FEF70DF908900999FEF73C
:101FC00009F90A900B99FEF7ADF81C901D99349809
:101FD000FEF700F909901C993398FEF7FBF808907A
:101FE0000999FEF7F1F80B9020992D98FEF7F2F879
:101FF00009901F992C98FEF7EDF808900999FEF7C3
:10200000E3F80A900B99FEF78DF81B901C99329813
:10201000FEF7E0F809901E993498FEF7DBF8089077
:102020000999FEF7D1F80B901F992B98FEF7D2F87B
:10203000099021992D98FEF7CDF808900999FEF79F
:10204000C3F80A900B99FEF76DF81A901E99339811
:10205000FEF7C0F809901D993298FEF7BBF808907A
:102060000999FEF7B1F80B9021992C98FEF7B2F878
:10207000099020992B98FEF7ADF808900999FEF782
:10208000A3F80A900B99FEF74DF819900020974994
:102090000860486088600846006801460990002092
:1020A000FEF798F80B9092481B99FEF793F8099069
:1020B0002E99FEF737F80A900B99FEF733F82E9019
:1020C0008A484068014609900020FEF783F80B908B
:1020D00087481A99FEF77EF809903099FEF722F8A2
:1020E0000A900B99FEF71EF83090804880680146F0
:1020F00009900020FEF76EF80B907D481999FEF7C5
:1021000069F809903199FEF70DF80A900B99FEF7DE
:1021100009F83190299818902898179027981690C8
:10212000744801684FF07C50FEF754F80A903199DA
:102130002798FEF74FF8089030992898FEF74AF84C
:102140000690299880F0004004902E99FEF742F8FE
:1021500005900699FEF738F807900899FEF734F8CD
:1021600009900A99FEF736F80B902A99FDF7DAFFE5
:102170002A90604801684FF07C50FEF72BF80A90D7
:1021800030991698FEF726F8089031991798FEF7BF
:1021900021F806902E992A98FEF71CF805900699CA
:1021A000FDF7C0FF07900899FEF70EF809900A990D
:1021B000FEF710F80B901899FDF7B4FF29904D48E1
:1021C00001684FF07C50FEF705F80A902E9916989A
:1021D000FEF700F8089031991898FDF7FBFF06907C
:1021E00030992A98FDF7F6FF05900699FDF7ECFF68
:1021F00007900899FDF796FF09900A99FDF7EAFF05
:102200000B901799FDF78EFF28903A4801684FF020
:102210007C50FDF7DFFF0A902E991798FDF7DAFF43
:10222000089030991898FDF7D5FF069031992A98B3
:10223000FDF7D0FF05900699FDF774FF0790089908
:10224000FDF7C2FF09900A99FDF7C4FF0B9016999C
:10225000FDF768FF279027990846FDF7BBFF06901A
:1022600028990846FDF7B6FF049029990846FDF71E
:10227000B1FF02902A990846FDF7ACFF0190029940
:10228000FDF750FF03900499FDF74CFF0590069968
:10229000FDF748FF0790FEF715F9CDE9080102F0B8
:1022A000EBF8CDE90A01FEF720F926904FF07E50B9
:1022B0002699FDF7C1FF269026992A98FDF78AFFF7
:1022C0000D49086026992998FDF784FF0A4948605E
:1022D00026992898FDF77EFF07498860DDE92610DA
:1022E000FDF778FF0449C86000BFC0E4C0040020C7
:1022F00000002041CC000020DC00002000BFFEE7F1
:102300007047000070B5002100230F22C47804B389
:10231000154C246804F4E064C4F5E064210AC1F1BA
:102320000403CA40447804FA03F18478144021433A
:1023300009010E4C0678A155047804F01F0501240C
:10234000AC4005786D11AD0005F1E025C5F8004100
:1023500009E0047804F01F050124AC40044D067820
:10236000761145F8264070BD0CED00E000E400E079
:1023700080E100E002490143024A11607047000019
:102380000000FA050CED00E070B5044600253E485B
:102390003E49097844543D48007858B9AA2C05D1E3
:1023A0003A480078401C394908706CE000203749F1
:1023B000087068E035480078012805D13348007876
:1023C000401C324908705EE03048007802280BD18A
:1023D000052C05D12D480078401C2C49087052E08E
:1023E00000202A4908704EE02848007803280DD1C3
:1023F000412C01D0422C05D124480078401C2349AF
:10240000087040E00020214908703CE01F48007837
:1024100004280ED11E4804700078142805DA1B48E1
:102420000078401C194908702DE0002017490870F9
:1024300029E01648017816480078401D81421DD1D8
:10244000002005E01049095C2944CDB2411CC8B206
:102450000F490978491D8842F4DBA5420AD10C488E
:102460000078801DC1B2084800F01EF8002007491E
:10247000087008E000200549087004E0034800786F
:10248000401C0249087070BDB801002031000020D6
:10249000300000200020024908800249087070477F
:1024A00028000020CC01002070B504460D46E078DD
:1024B000412819D160792D490871A1792B484171C2
:1024C000207AE17940EA012001B22848C180A07A4F
:1024D000617A40EA012001B224480181E17A8172E7
:1024E0000120224988703DE0E07842283AD16079A5
:1024F0001E490873E079A17940EA012001B21B4826
:10250000C181607A217A40EA012001B21748018234
:10251000A17A8174207BE17A40EA012001B213485C
:102520008182A07B617B40EA012001B20F48C18219
:10253000E17B017602200D4988700D480088401C1F
:102540000B4908800948C0890A490988084400B233
:10255000084908800548008A07490988084400B2EC
:1025600005490880FFF796FF70BD0000CC010020F0
:102570002E0000202A0000202C00002070470000C0
:1025800029B1064A92690243044B9A6104E0034A66
:1025900092698243014B9A6170470000001002402B
:1025A00030B500210022002400232D4D6D6805F078
:1025B0000C0121B1042905D0082923D105E0294DBA
:1025C000056022E0274D05601FE0254D6D6805F48C
:1025D0007012234D6D6805F48034022505EB92429C
:1025E0001CB9214D554305600BE01D4D6D6805F488
:1025F00000351DB11C4D5543056002E0194D554392
:10260000056002E0174D056000BF00BF144D6D6806
:1026100005F0F0010909154D6B5C0568DD4045606A
:102620000F4D6D6805F4E061090A104D6B5C45685B
:10263000DD4085600A4D6D6805F46051C90A0B4D97
:102640006B5C4568DD40C560054D6D6805F4404133
:10265000890B074D6B5CC568B5FBF3F5056130BDB3
:102660000010024000127A0000093D001400002012
:10267000240000207047000070B5002400BF1EE059
:1026800000F008F9054604EB44000E4901EB800018
:102690008068281A04EB44010A4A02EB8101C988C8
:1026A00088420AD304EB4400114601EB80008560A8
:1026B00004EB440152F821008047601CC4B2082C8E
:1026C000DED370BDEC000020002000BF1FE000EB57
:1026D0004001104A02EB810189884FF47A7292FB23
:1026E000F1F100EB40020B4B03EB8202D18000EBD7
:1026F00040011A4602EB8101C988012905DA01214E
:1027000000EB400203EB8202D180411CC8B20828D2
:10271000DDD37047EC00002010B500F001F810BDCB
:102720000CB50020019000903348006840F48030E0
:102730003149086000BF3048006800F40030009064
:102740000198401C0190009818B90198B0F5A06F4D
:10275000F1D12948006800F4003010B10120009048
:1027600001E0002000900098012843D12348006830
:1027700040F01000214908600846006820F003007E
:1027800008600846006840F0020008601A48406887
:10279000194948600846406848600846406840F467
:1027A000806048600846406820F47C104860084615
:1027B000406840F4E81048600846006840F08070C7
:1027C000086000BF0C48006800F000700028F9D0D5
:1027D0000948406820F003000749486008464068FF
:1027E00040F00200486000BF0348406800F00C0061
:1027F0000828F9D10CBD0000001002400020024062
:10280000042808D14FF0E021096941F004014FF09C
:10281000E022116107E04FF0E021096921F0040195
:102820004FF0E0221161704770B5174800684FF40F
:102830007A71B0FBF1F4E4082146B1F1807F00D356
:102840001DE021F07F40401E4FF0E0225061501704
:102850000022002807DA13071E0E0C4B00F00F05AC
:102860002D1F5E5503E013071D0E094B1D5400BFBD
:1028700000204FF0E02290610720106100BF6FF050
:102880000400FFF7BDFF70BD0000002018ED00E060
:1028900000E400E0014800687047000038000020B4
:1028A00000B504480068401C0249086001F00AFEB7
:1028B00000BD00003400002010B51348006840F04F
:1028C00001001149086008464068104908400E4957
:1028D0004860084600680E4908400B4908600846F1
:1028E000006820F4802008600846406820F4FE005C
:1028F00048604FF41F008860FFF70EFF4FF0006044
:102900000449086010BD0000001002400000FFF8FC
:10291000FFFFF6FE08ED00E04FF08040008A4FF028
:102920008040008A20F001004FF08041088270470B
:1029300010B50121034800F00AF80321014800F016
:1029400003F810BD00080040CA430282704730B54A
:102950000246002000230024158A05EA0103958918
:1029600005EA010413B10CB1012000E0002030BDE4
:1029700010B54FF458711B4800F0D0F810B1194849
:1029800000F088F91748008800F08000F0B1154881
:102990000C30008800F08000C0B113480178007846
:1029A000401C114A10701148405C0E49091D0880F6
:1029B000104600780E490978884207D109480C3042
:1029C000008820F0800007490C3108800548008805
:1029D00000F0200020B10348001D00880549087060
:1029E00010BD0000003801403D000020E60100203D
:1029F0003E0000203C00002010B54FF458710B48F9
:102A000000F064F8094800F045F90949094A1268DC
:102A1000885408490968481CC11700EB5161C91165
:102A2000A0EBC111034A116010BD0000004400403A
:102A3000E60200204400002010B54FF458711F48F2
:102A400000F06CF810B11D4800F024F91B48008814
:102A500000F4C070F0B119480C30008800F080001C
:102A6000C0B1174801780078401C154A107015480D
:102A7000405C1249091D0880104600781249097807
:102A8000884207D10D480C30008820F080000B49A7
:102A90000C3108800948008800F0200060B140F245
:102AA0002551064800F012F80448001D0088C4B201
:102AB0002046FFF769FC00BF10BD00000048004041
:102AC00048000020660300204900002010B50022C5
:102AD000002340F66A14A14200D100BF0A1201246B
:102AE0009440A3B2DC43048010BD21B1828942F43A
:102AF0000052828104E082894DF6FF731A40828180
:102B0000704702460020B1F5007F00D100BF138856
:102B10000B400BB1012000E00020704770B5024669
:102B2000002400230025002040F66A16B14200D19F
:102B300000BFC1F3421501F01F03012606FA03F39B
:102B4000012D02D19689334006E0022D02D1168A6A
:102B5000334001E0968A33400C12012606FA04F451
:102B60001688344013B10CB1012000E0002070BD84
:102B7000F0B50346002400260025002040F66A1721
:102B8000B94200D100BF1846C1F3421401F01F063C
:102B9000012707FA06F5012C01D10C3004E0022CC4
:102BA00001D1103000E014301AB107682F430760DC
:102BB00002E00768AF430760F0BD00002DE9F04771
:102BC00086B005460E460024A24600BFA146002757
:102BD000B08900B100BF2F462C8A4CF6FF7004402C
:102BE000F08804432C82AC894EF6F3100440B08880
:102BF00031890843718908430443AC81AC8A4FF69C
:102C0000FF400440B0890443AC8201A8FFF7C8FC30
:102C10001F48874202D1DDF810A001E0DDF80CA0CA
:102C2000A88900F4004040B10AEBCA0000EB0A108A
:102C300031684900B0FBF1F807E00AEBCA0000EB8D
:102C40000A1031688900B0FBF1F86420B8FBF0F09D
:102C500004012009642101FB1089A88900F40040C7
:102C600040B1322000EBC900B0FBF1F000F00700EA
:102C7000044308E0322000EB09106421B0FBF1F0BE
:102C800000F00F0004432C8106B0BDE8F08700007F
:102C90000038014001468888C0F308007047C1F33E
:102CA000080282807047000070B504460D4600207F
:102CB0000AE0225C0C490B780978491C0A4E3170F5
:102CC0000A49CA54411CC8B2A842F2DB084800882D
:102CD00000F0800030B9012240F2277104480C381E
:102CE000FFF746FF70BD00003E000020E601002017
:102CF0000C38014000BFFEE70FB4054B10B503A927
:102D0000044A029800F04CF910BC5DF814FB000076
:102D1000F94000084C010020490050EAC12018BFCA
:102D200004204A0D18BF40F0010040F2FF72B2EBE0
:102D3000515F08BF40F00200012808BF052070471E
:102D40002DE9F0414F1E00EBC7010446D1E9000117
:102D500015461E4637F006020DD02A463346FDF7CB
:102D6000A9FA7F1E04EBC703D3E90023FDF7CFFCCC
:102D700037F00602F1D1022F25D0042F13D0062FF1
:102D800018BFBDE8F0812A463346FDF793FAD4E92F
:102D90000A23FDF7BCFC2A463346FDF78BFAD4E93B
:102DA0000823FDF7B4FC2A463346FDF783FAD4E93D
:102DB0000623FDF7ACFC2A463346FDF77BFAD4E93F
:102DC0000423FDF7A4FC2A463346FDF773FAD4E941
:102DD0000223FDF79CFC2A463346FDF76BFAD4E943
:102DE0000023BDE8F041FDF792BC0122FDF736BD9E
:102DF000FDF78DBC0022134610461146FDF7CCBAF4
:102E0000024A00201107FDF729BD000001FDFFFF68
:102E100002E008C8121F08C1002AFAD170477047A3
:102E2000002001E001C1121F002AFBD17047000001
:102E30000149086070470000500100202DE9FF5F44
:102E4000DDE90220010DDDF838B0024318D044F668
:102E50001050A1F2FF3141430D140F98012820D0EA
:102E6000A5EB0B00401C5FEA000A4FF00004474E40
:102E7000DFF81C91A046504616D5CAF1000728E09D
:102E80000F98012443A2012808D0002100980F9B2D
:102E9000C0E90021C0E90243BDE8FF9F6FEA0B01D2
:102EA000F4E7CBF10000DEE7074612E0F80707D0B1
:102EB0002246334640464946FDF7FCF9804689469E
:102EC0002246334610461946FDF7F4F904460E46ED
:102ED0007F10002FEAD1DDE90201BAF1000F42466E
:102EE0004B4602DAFDF7E6F901E0FDF755FA044634
:102EF0000E460022284BFDF731FD03D84FF0FF307E
:102F0000014607E00022254B20463146FDF7FFFB36
:102F1000FDF70CFD102409E0002C0ADB0A22002337
:102F2000FDF720FB019B30321A55641E50EA010266
:102F3000F2D1641C019AC4F1110314440F9A012ABE
:102F400003D0012208430DD10AE0084304D0002039
:102F50004FF0110B0F9080E7A3EB0B056D1E0DE0FA
:102F60005B4504DD4FF0000205F1010504E003DAE2
:102F70004FF00002A5F10105002AECD000980F994E
:102F8000C0E90231C0E9004586E7000000002440A6
:102F90000000F03F300000000000F0430000E03F80
:102FA0002DE9FF4F95B09B468946064600250FE266
:102FB000252877D100242746F84A0121059400E00E
:102FC000044316F8013F203B01FA03F01042F7D109
:102FD00030782A2811D06FF02F033078A0F130021A
:102FE000092A16D8059A44F0020402EB820203EB88
:102FF00042021044761C0590EFE759F8042B059225
:10300000002A03DA504244F40054059044F00204CC
:10301000761C30782E2816D116F8010F44F00404DF
:103020002A280DD06FF02F023078A0F13003092B41
:1030300009D807EB870302EB4303C718761CF3E7B5
:1030400059F8047B761C30786C280FD006DC4C28AD
:1030500017D068280DD06A2814D104E0742810D045
:103060007A280FD10DE044F400140AE044F48014EF
:1030700001E044F440147278824202D104F58014D5
:10308000761C761C307866280BD013DC582877D055
:1030900009DC002875D04528F6D04628F4D047280A
:1030A0001AD19DE118E0632835D0642879D06528CD
:1030B00012D195E1702873D008DC6728F1D0692817
:1030C0006FD06E280DD06F2806D1B5E073282CD0B4
:1030D000752875D0782874D05A46179990476D1C7A
:1030E00075E1C4F30250022809D003280DD0D9F8A5
:1030F000001004280DD00D6009F1040967E1D9F82A
:103100000010EA17C1E90052F6E7D9F800100D8067
:10311000F2E70D70F0E719F8041B8DF8001000209D
:103120008DF80100EA46012003E059F804AB4FF0A6
:10313000FF3061074FF0000102D40DE008F10101FA
:103140008846B9420FDA8045F8DB1AF808100029E2
:10315000F4D108E008F1010188468142FADB1AF84F
:1031600008100029F6D105985B46A0EB0807214618
:103170003846179A00F094FA284400EB080507E057
:103180004DE029E10DE01AF8010B5A4617999047D6
:10319000B8F10108F7D25B4621463846179A13E189
:1031A00042E00A220092C4F302524FF0000A022ABF
:1031B00008D059F804CB032A4FEAEC710AD00DE08D
:1031C00029E02AE009F1070121F00702F2E802C133
:1031D000914609E00FFA8CFC4FEAEC71042A03D106
:1031E0004FFA8CFC4FEAEC71002907DA0A460021FD
:1031F000DCF1000C61EB02012D2202E0220504D576
:103200002B228DF80420012203E0E20701D02022C6
:10321000F7E7904659E00A2102E010220DE0102164
:103220004FF0000A00910BE010224FF0000A44F02A
:1032300004040827009203E008224FF0000A0092DD
:10324000C4F30252022A05D059F804CB0021032A04
:1032500008D009E009F1070121F00702F2E802C1F4
:10326000914605E01FFA8CFC042A01D10CF0FF0CFA
:103270004FF00008220728D5702806D0009B83F065
:10328000100353EA0A0305D00EE040228DF8042013
:10329000012208E05CEA010206D030228DF8042009
:1032A0008DF8050002229046009B83F0080353EA44
:1032B0000A030AD15CEA010201D1620705D5302276
:1032C0008DF804204FF001087F1E582804D034A048
:1032D00003900EA802900DE036A0F9E75346604631
:1032E000009AFDF73FF984460398825C0298401EDD
:1032F000029002705CEA0100F0D1029806A9081A57
:1033000000F1200A600702D524F4803400E0012790
:10331000574502DDA7EB0A0000E0002000EB0A01A0
:10332000009005984144401A0590E00306D45B469E
:103330002146179A059800F0B3F90544002706E0E6
:1033400001A85A46C05D179990476D1C7F1C4745E0
:10335000F6DBE0030CD55B462146179A059800F092
:103360009FF9054404E030205A46179990476D1C98
:103370000099481E00900029F5DC08E002980299A7
:103380005A460078491C0291179990476D1CBAF172
:103390000001AAF1010AF1DC65E100000928010041
:1033A00030313233343536373839616263646566BB
:1033B000000000003031323334353637383941427D
:1033C000434445460000000000F058F90544761CCF
:1033D000307800287FF4ECAD19B02846BDE8F08FB6
:1033E000620700D4062709F1070222F0070CFCE867
:1033F0000223E14603F000485FEA080C02D00FF216
:10340000702C0DE05FEA045C02D50FF2682C07E037
:103410005FEAC47C02D00FF2602C01E0AFF2700CC6
:103420004FF0FF3823F00043CDF850C065280CD092
:1034300006DC452809D046281DD047283DD13DE06F
:10344000662818D067287ED138E00021112F01DBD3
:10345000112000E0781CCDE9000106A90EA8FFF7B5
:10346000EDFCDDE90F010E9A03910021009207F1B6
:10347000010A04914DE04FF000400097CDE90110A2
:1034800006A90EA8FFF7DAFCDDE90F0203920E9BF6
:1034900011990022DDF80CA00093049211B9791C57
:1034A00000EB010AB7EB0A0004D4C0F1FF3007F1CA
:1034B000010A0490AAEB0700019044E0012F00DA12
:1034C00001270021112F01DD112000E03846CDE950
:1034D000000106A90EA8FFF7B1FCDDE90F010E9A65
:1034E0000391002104910092BA4621070CD403995C
:1034F000514500DA8A46BAF1010F05DD009AAAF1BA
:103500000101515C302908D0B84202DA10F1040FF1
:1035100006DA0121CDE9011015E0AAF10101E9E780
:10352000002805DC049901440491AAEB000102E0A3
:10353000411C514500DD8A460499401A401C019007
:103540004FF000400290200704D40198504501DB61
:10355000CDF8048000208DF84F0002980DF14F0740
:10356000B0F1004F25D02B200E9002984FF00208AA
:1035700000280CDA404202902D200E9007E00A212C
:103580000298FCF7D9FF3031029007F8011DB8F11D
:103590000001A8F10108F2DC02980028EFD1791EA1
:1035A0000E980870307800F0200040F0450007F8D1
:1035B000020D12A8C01B00F107081498007800B192
:1035C000012000EB0A01019801EBE07105984144EC
:1035D000401A401E0590E00306D45B462146179A28
:1035E000059800F05DF805441498007818B15A4623
:1035F000179990476D1CE00324D55B462146179A26
:10360000059800F04DF805441CE00498002807DBFD
:10361000DDE90301884203DD0098405C179901E071
:10362000179930205A469047049805F10105401C2F
:1036300004900198401E019004D12E205A461799FB
:1036400090476D1CBAF10001AAF1010ADDDC05E02A
:1036500017F8010B5A46179990476D1CB8F10001F5
:10366000A8F10108F4DC5B462146179A0598ABE601
:103670002D0000002B000000200000002DE9F0418B
:10368000044600251E461746880404D405E0394642
:103690002020B0476D1C641EF9D52846BDE8F08196
:1036A0002DE9F041044600251E469046C80301D589
:1036B000302700E02027880404D505E0414638463D
:1036C000B0476D1C641EF9D52846BDE8F0810000A6
:1036D0002DE9F04D8D4F21F0004A86B005460C468D
:1036E000BA452ADBAAEB070028430AD0884882455E
:1036F00001DC1AD1CDB106B02846BDE8F04DFFF788
:1037000074BB844A844B2846FCF7D4FD07460E461A
:10371000824A834B28462146FCF7CCFD06B03A4648
:103720003346BDE8F04DFCF7F2BF0120FFF780FB08
:1037300006B0BDE8F04DFFF75DBB7A48824542DA3E
:10374000BAF1795F0BDA2846FFF7E6FA042808BFDA
:10375000FFF756FB284606B02146BDE8F08D2A4605
:103760000B461046FCF7A6FD834602466E480E4601
:103770000B4606217844FFF7E3FA5A463346FCF736
:1037800099FD804669488A465A4633460421784462
:10379000FFF7D6FA5A463346FCF78CFD00223B462B
:1037A000FCF7B5FF02460B4640465146FCF7F4FDD8
:1037B0002A462346FCF77EFD06B02A462346BDE88E
:1037C000F04DFCF7A4BF284624F0004100223D46FE
:1037D0003B46FDF740F84FF0FF32FDF73FF8064655
:1037E000024653480F460B4606217844FFF7A8FAD5
:1037F00032463B46FCF75EFDCDE900014D483246BE
:103800003B4604217844FFF79BFA32463B46FCF7DF
:1038100051FD00222B46FCF77AFF83460291304689
:10382000394600F029FE804643480D46504517DCD6
:10383000DDE900015A46029BFCF7AEFD42462B46ED
:10384000FCF738FD42462B46FCF761FF0122FDF7ED
:1038500005F8304A304BFCF7FBFF304A304B4CE068
:103860004FF0000A52460B464046FCF750FFCDE9A8
:10387000031052462B4610461946FCF71BFD3246F4
:103880003B46FCF7E8FFDDE90332FCF785FD064621
:103890000F46DDE900015A46029BFCF77DFD834699
:1038A0000091012230463946FCF7D8FF194A1A4BDD
:1038B000FCF7D1FF06460F46012240462946FCF799
:1038C000CDFF5A46009BFCF7F5FC32463B46FCF721
:1038D000BFFF06460F46012250462946FCF7BEFFB1
:1038E0000E4DDFF858802A464346FCF7B4FF3246B7
:1038F0003B46FCF7B0FF2A464346FCF7ACFF002CE2
:10390000D8BF81F0004106B0BDE8F08D0000F03F67
:103910000000F07F075C143326A6913C182D445418
:10392000FB21F93F0000E03F000E0000160E0000F2
:103930008A0D0000A00D00003333EF3FFB21E93F6B
:103940002DE9F84F04460D4621F0004000917349DF
:10395000814211DC7249884201DC06D12CB120463B
:103960002946BDE8F84FFFF740BA6E48002DCCBF9E
:103970006D496E49BDE8F88F6D49814211DD6D4991
:103980008142D8BF4FF0FF366DDD20462946FFF754
:10399000C3F9042808BFFFF733FA20462946BDE8DB
:1039A000F88F6549654F25F00045814233DD644954
:1039B000814219DD002632464FF0804320462946D9
:1039C000FCF7A5FE80468A46012220462946FCF7E0
:1039D00045FF00223B46FCF73BFF42465346FCF7BF
:1039E000DBFC04460D463EE001260022BA463B467B
:1039F00020462946FCF78BFE80460F4600225346A0
:103A000020462946FCF724FF42463B46FCF7C4FC0F
:103A100004460D4627E04B4981421BDDDFF828A113
:103A200002260022534620462946FCF743FC00228A
:103A30003B46FCF76CFE80460F460022534620466C
:103A40002946FCF705FF42463B46FCF7A5FC044629
:103A50000D4608E0032622462B4600203B49FCF792
:103A60009BFC04460D4622462B4610461946FCF7A1
:103A700021FC8B46824602460B46FCF71BFC0746A0
:103A80000246334888460B4606217844FFF758F92A
:103A900052465B46FCF70EFC82462E488B463A4661
:103AA000434605217844FFF74BF93A464346FCF775
:103AB00001FC02460B46002E504659460CDAFCF734
:103AC00026FE22462B46FCF7F5FB01B022462B468C
:103AD000BDE8F04FFCF7BFBEFCF719FE22462B46AF
:103AE000FCF7E8FB1C4A7A4402EBC603D3E9002347
:103AF000FCF7AEFE22462B46FCF7AAFE174A7A4494
:103B000002EBC603D3E90023FCF7A5FE009A002AC6
:103B1000B8BF81F00041BDE8F88F000000001044FC
:103B20000000F07F182D4454FB21F93FFB21F9BF21
:103B30000000DC3F0000203E0000F33F0000F03FAB
:103B40000000E63F008003400000F83F0000F0BFA7
:103B5000A20B0000600B0000FE0A0000C60A000075
:103B60002DE9F04D9446CCF1000423F000464CEAD8
:103B70000404524F46EAD4749A46884621F0004223
:103B8000BC4206D8454240EA050442EAD474BC422D
:103B900004D9BDE8F04D6246FFF72AB9AAF14055B5
:103BA000A5F17F6555EA0C040BD0022404EAAA743F
:103BB000434DDFF810E144EAD87452EA000B04D018
:103BC0000CE0BDE8F04DFFF7BBBE002C14BF012C8C
:103BD000BDE8F08D022C30D0032C32D056EA0C0B0D
:103BE0000AD0BE4220D1BA4209D126F0804622F046
:103BF00080423346114617E000291ADB25E0DFF842
:103C0000C8B0FB44002C04BFDBE90001BDE8F08D27
:103C1000012C02BFDBE9000181F00041BDE8F08D1D
:103C2000022C0AD0032C0CD0BA4212D1B8F1000FEA
:103C30000BDA23482549BDE8F08D28462449BDE824
:103C4000F08D28467146BDE8F08D1D482149BDE83C
:103C5000F08D921B12153C2AC4BF19481D490EDC79
:103C6000BAF1000FBEBF12F13C0F0020014606DB87
:103C70006246FCF791FB21F00041FFF761FE002C4A
:103C800008BFBDE8F08D012C04BF81F00041BDE804
:103C9000F08D114A114B022C07D0FCF7D9FD2A46B2
:103CA000BDE8F04D0A4BFCF7D3BDFCF7D1FD2A4629
:103CB000BDE8F04D064BFCF7CEBD00000000F07FE4
:103CC000182D4454FB2109C05A0A0000FB21F9BFFA
:103CD000FB210940FB21F93F075C143326A6A13CD8
:103CE0002DE9F04F91B006460F4600200B900C9046
:103CF0000D90089009900A9080226B216820FDF7B2
:103D000020FF6420FCF717FF01226B216820FDF7DC
:103D100018FF00226C216820FDF713FFC820FCF774
:103D20000AFF002238216820FDF70BFF0022232123
:103D30006820FDF706FF00226B216820FDF701FFD8
:103D4000002224216820FDF7FCFE00226A21682061
:103D5000FDF7F7FE0C226A216820FDF7F2FE0F2026
:103D6000FCF7E9FE01221A216820FDF7EAFE002295
:103D700019216820FDF7E5FE00221B216820FDF7D0
:103D8000E0FE00221C216820FDF7DBFE4FF0830BD4
:103D90004FF4804840226A216820FDF7D2FE782245
:103DA00023216820FDF7CDFE2820FCF7C4FE002269
:103DB00023216820FDF7C5FE0EAB02227221682088
:103DC000FDF78AFE9DF839009DF8381040EA012A77
:103DD0000C209AFBF0F084B2002560E000200290F5
:103DE0000390009001900EAB0C2274216820FDF727
:103DF00073FE9DF839009DF8381040EA012000B2AA
:103E0000ADF808009DF83B009DF83A1040EA01200B
:103E100000B2ADF80A009DF83D009DF83C1040EA64
:103E2000012000B2ADF80C009DF83F009DF83E1057
:103E300040EA012000B2ADF800009DF841009DF875
:103E4000401040EA012000B2ADF802009DF84300A6
:103E50009DF8421040EA012000B2ADF80400BDF91F
:103E60000810089808440890BDF90A1009980844F9
:103E70000990BDF90C100A9808440A90BDF9001089
:103E80000B9808440B90BDF902100C9808440C9054
:103E9000BDF904100D9808440D90681C85B2A54228
:103EA0009CDB089890FBF4F00890099890FBF4F0E4
:103EB00009900A9890FBF4F00A900B9890FBF4F0AC
:103EC0000B900C9890FBF4F00C900D9890FBF4F094
:103ED0000D900A98002804DD0A98A0EB08000A90CB
:103EE00002E00A9840440A900B994842C11700EB3F
:103EF00091718910090A8DF838100B994842C11741
:103F000000EB9171C1F387018DF839100C9948428B
:103F1000C11700EB91718910090A8DF83A100C99BC
:103F20004842C11700EB9171C1F387018DF83B1036
:103F30000D994842C11700EB91718910090A8DF85B
:103F40003C100D994842C11700EB9171C1F38701F4
:103F50008DF83D105846FCF797FA03900B98FCF744
:103F60008AFA02900399FCF767F930605846FCF72B
:103F70008BFA03900C98FCF77EFA02900399FCF7F9
:103F80005BF970605846FCF77FFA03900D98FCF7D8
:103F900072FA02900399FCF74FF9B0600020059087
:103FA000069007900EAB022277216820FDF794FD62
:103FB0009DF83800000200B29DF8391008430590C2
:103FC0000EAB02227A216820FDF786FD9DF83800AD
:103FD000000200B29DF83910084306900EAB022291
:103FE0007D216820FDF778FD9DF83800000200B2C1
:103FF0009DF83910084307904FF001090020049004
:1040000000250AE005A850F8250000EA090010B1D3
:10401000012004A94855681C85B2032DF2DB0898DD
:10402000C11700EB5171059AA2EBE10105910998C6
:10403000C11700EB5171069AA2EBE10106910A98B3
:10404000C11700EB5171079AA2EBE10107910598A6
:10405000000A8DF838000598C0B28DF839009DF837
:1040600039009DF8101008438DF839000698000AB1
:104070008DF83A000698C0B28DF83B009DF83B00E1
:104080009DF8111008438DF83B000798000A8DF841
:104090003C000798C0B28DF83D009DF83D009DF8AA
:1040A000121008438DF83D004046FCF7EDF90390EF
:1040B0000898FCF7E0F902900399FCF7BDF8386026
:1040C0004046FCF7E1F903900998FCF7D4F9029017
:1040D0000399FCF7B1F878604046FCF7D5F90390F6
:1040E0000A98FCF7C8F902900399FCF7A5F8B860A4
:1040F00011B0BDE8F08F000070B504460D46E1B286
:104100000548FEF7CCFD00BF80210348FEF7F9FC0F
:104110000028F9D0204670BD003801400F480078D3
:1041200030B1012809D002280CD0032814D10EE0A8
:104130004FF062500A4908600EE04FF064500849A1
:10414000086009E04FF066500549086004E04FF050
:1041500068500349086000BF00BF70475800002046
:104160005C0000200D48007830B1012808D00228FA
:104170000AD0032810D10BE009480A4908600BE077
:1041800009480849086007E008480649086003E054
:1041900007480449086000BF00BF7047590000206D
:1041A0000000FA3B6000002000007A3C0000FA3C6E
:1041B00000007A3D0748007810B1012808D103E0DB
:1041C00005480649086003E005480449086000BF47
:1041D00000BF70475A000020FFEBBF406400002082
:1041E000FFEBBF3FF8B5044600220A210C20FDF783
:1041F000A8FC0A20FCF79FFC0F220A210C20FDF7E7
:10420000A0FC0A20FCF797FC6B46032210210C202F
:10421000FDF762FC9DF80010A1F18000FCF72BF97E
:1042200006464FF08741FCF707F805464FF07E51F0
:10423000FBF778FF20609DF80110A1F18000FCF7EA
:104240001AF906464FF08741FBF7F6FF05464FF097
:104250007E51FBF767FF60609DF80210A1F18000BE
:10426000FCF709F906464FF08741FBF7E5FF0546E5
:104270004FF07E51FBF756FFA06000220A210C2070
:10428000FDF75FFC0A20FCF756FC07480078074959
:10429000097840EA0110C2B20A210C20FDF751FC56
:1042A0000A20FCF748FCF8BD5B0000205A00002003
:1042B00010B500226B216820FDF743FC6420FCF759
:1042C0003AFC01226B216820FDF73BFC03221A21F6
:1042D0006820FDF736FC042219216820FDF731FC27
:1042E0001B216820FDF77AFA044624F0020424F02A
:1042F00018041A48007844EAC000C4B222461B21C0
:104300006820FDF71EFC1C216820FDF767FA0446B3
:1043100024F018041248007844EAC000C4B22246CF
:104320001C216820FDF70DFC1D216820FDF756FAC1
:10433000044624F00F0444F0030422461D216820A3
:10434000FDF7FFFB222237216820FDF7FAFB01224F
:1043500038216820FDF7F5FB10BD00005900002052
:104360005800002010B5FEF75FFA4FF4A060FEF78A
:1043700001F8FEF7A9F9044800F0ACF86420FCF756
:10438000DAFBFDF7EBF810BD20A10700FFF7EAFF0D
:1043900001E0FEF771F9FCE71CB504466B46062206
:1043A0003B216820FDF798FB9DF801009DF8001067
:1043B00040EA012000B220809DF803009DF8021021
:1043C00040EA012000B260809DF805009DF80410CD
:1043D00040EA012000B2A0801CBD1CB504466B461B
:1043E000062243216820FDF777FB9DF801009DF828
:1043F000001040EA012000B220809DF803009DF8E3
:10440000021040EA012000B260809DF805009DF88E
:10441000041040EA012000B2A0801CBD7CB5044617
:1044200002210C20FDF7DAF900F0010018B36B4609
:10443000072203210C20FDF74FFB9DF8065005F0E5
:104440000800B8B99DF800009DF8011040EA01206D
:1044500000B220809DF802009DF8031040EA012080
:1044600000B260809DF804009DF8051040EA01202C
:1044700000B2A08000BF7CBD2DE9F04106460F468A
:10448000FCF703FA041E0D4618BF0120284320F054
:104490000040C0F17F6000F1E040C00F0ED0301C42
:1044A00018BF0120384320F00040C0F17F6000F1C8
:1044B000E040C00F04BF0120FEF7BAFC20462946A9
:1044C000BDE8F08102480068401C0149086070475F
:1044D0003800002010B586B00446012144F20400E3
:1044E000FEF74EF84FF40070ADF8140003208DF87D
:1044F000160018208DF8170005A91C48FCF733FB9F
:104500004FF48060ADF8140004208DF8170005A961
:104510001648FCF728FB25208DF8000003208DF8B5
:1045200001008DF8020001208DF803006846FDF7B8
:10453000E9FE01940020ADF80800ADF80A00ADF8DE
:104540000C00ADF810000C20ADF80E0001A90848D1
:10455000FEF734FB012240F225510548FEF708FB27
:1045600001210348FEF7C1FA06B010BD0008014062
:104570000038014000000000555555555555C53FC0
:104580007D6FEB0312D6D4BF5544880E55C1C93F89
:104590003B8F68B52882A4BF88B20175E0EF493F20
:1045A00009F7FD0DE13D023F4B2D8A1C273A03C060
:1045B000C88A599CE52A004059018D1B6C06E6BF4C
:1045C00082922EB1C5B8B33F4FBB610567ACDD3FEA
:1045D000182D4454FB21E93F9BF681D20B73EF3F2A
:1045E000182D4454FB21F93FE2652F227F2B7A3CA2
:1045F000075C143326A6813CBDCBF07A8807703C5B
:10460000075C143326A6913CC4EB98999999C9BFCD
:10461000711623FEC671BCBF6D9A74AFF2B0B3BF02
:104620009AFDDE522DDEADBF2F6C6A2C44B4A2BFC2
:104630000D5555555555D53FFF8300922449C23F2E
:104640006E204CC5CD45B73F513DD0A0660DB13F62
:10465000EB0D76244B7BA93F11DA22E33AAD903F74
:104660000000000000000000884600080000002054
:1046700054010000F2090008E0460008540100203F
:104680007C070000202E00081184A24A046809015A
:10469000020304060708090C691005320204060823
:1046A0000354010645920A863F052235FA8E3C3AAC
:1046B000802C811345156408E8031A570C63F40134
:1046C0001A4B0C72C81A470C72641A590C72321ABF
:1046D000530C72141A490C720A1A550CF20200009B
:04000005080000ED02
:00000001FF
